{
  "_format": "hh-sol-artifact-1",
  "contractName": "MyNFT",
  "sourceName": "contracts/TICKET_NFT.sol",
  "abi": [
    {
      "inputs": [],
      "stateMutability": "nonpayable",
      "type": "constructor"
    },
    {
      "anonymous": false,
      "inputs": [
        {
          "indexed": true,
          "internalType": "address",
          "name": "owner",
          "type": "address"
        },
        {
          "indexed": true,
          "internalType": "address",
          "name": "approved",
          "type": "address"
        },
        {
          "indexed": true,
          "internalType": "uint256",
          "name": "tokenId",
          "type": "uint256"
        }
      ],
      "name": "Approval",
      "type": "event"
    },
    {
      "anonymous": false,
      "inputs": [
        {
          "indexed": true,
          "internalType": "address",
          "name": "owner",
          "type": "address"
        },
        {
          "indexed": true,
          "internalType": "address",
          "name": "operator",
          "type": "address"
        },
        {
          "indexed": false,
          "internalType": "bool",
          "name": "approved",
          "type": "bool"
        }
      ],
      "name": "ApprovalForAll",
      "type": "event"
    },
    {
      "anonymous": false,
      "inputs": [
        {
          "indexed": true,
          "internalType": "address",
          "name": "previousOwner",
          "type": "address"
        },
        {
          "indexed": true,
          "internalType": "address",
          "name": "newOwner",
          "type": "address"
        }
      ],
      "name": "OwnershipTransferred",
      "type": "event"
    },
    {
      "anonymous": false,
      "inputs": [
        {
          "indexed": true,
          "internalType": "address",
          "name": "from",
          "type": "address"
        },
        {
          "indexed": true,
          "internalType": "address",
          "name": "to",
          "type": "address"
        },
        {
          "indexed": true,
          "internalType": "uint256",
          "name": "tokenId",
          "type": "uint256"
        }
      ],
      "name": "Transfer",
      "type": "event"
    },
    {
      "inputs": [
        {
          "internalType": "address",
          "name": "to",
          "type": "address"
        },
        {
          "internalType": "uint256",
          "name": "tokenId",
          "type": "uint256"
        }
      ],
      "name": "approve",
      "outputs": [],
      "stateMutability": "nonpayable",
      "type": "function"
    },
    {
      "inputs": [
        {
          "internalType": "address",
          "name": "owner",
          "type": "address"
        }
      ],
      "name": "balanceOf",
      "outputs": [
        {
          "internalType": "uint256",
          "name": "",
          "type": "uint256"
        }
      ],
      "stateMutability": "view",
      "type": "function"
    },
    {
      "inputs": [
        {
          "internalType": "uint256",
          "name": "tokenId",
          "type": "uint256"
        }
      ],
      "name": "getApproved",
      "outputs": [
        {
          "internalType": "address",
          "name": "",
          "type": "address"
        }
      ],
      "stateMutability": "view",
      "type": "function"
    },
    {
      "inputs": [],
      "name": "getbalance",
      "outputs": [
        {
          "internalType": "uint256",
          "name": "",
          "type": "uint256"
        }
      ],
      "stateMutability": "view",
      "type": "function"
    },
    {
      "inputs": [
        {
          "internalType": "address",
          "name": "owner",
          "type": "address"
        },
        {
          "internalType": "address",
          "name": "operator",
          "type": "address"
        }
      ],
      "name": "isApprovedForAll",
      "outputs": [
        {
          "internalType": "bool",
          "name": "",
          "type": "bool"
        }
      ],
      "stateMutability": "view",
      "type": "function"
    },
    {
      "inputs": [
        {
          "internalType": "string",
          "name": "tokenURI",
          "type": "string"
        }
      ],
      "name": "mintNFT",
      "outputs": [
        {
          "internalType": "uint256",
          "name": "",
          "type": "uint256"
        }
      ],
      "stateMutability": "payable",
      "type": "function"
    },
    {
      "inputs": [],
      "name": "name",
      "outputs": [
        {
          "internalType": "string",
          "name": "",
          "type": "string"
        }
      ],
      "stateMutability": "view",
      "type": "function"
    },
    {
      "inputs": [],
      "name": "owner",
      "outputs": [
        {
          "internalType": "address",
          "name": "",
          "type": "address"
        }
      ],
      "stateMutability": "view",
      "type": "function"
    },
    {
      "inputs": [
        {
          "internalType": "uint256",
          "name": "tokenId",
          "type": "uint256"
        }
      ],
      "name": "ownerOf",
      "outputs": [
        {
          "internalType": "address",
          "name": "",
          "type": "address"
        }
      ],
      "stateMutability": "view",
      "type": "function"
    },
    {
      "inputs": [],
      "name": "renounceOwnership",
      "outputs": [],
      "stateMutability": "nonpayable",
      "type": "function"
    },
    {
      "inputs": [
        {
          "internalType": "address",
          "name": "from",
          "type": "address"
        },
        {
          "internalType": "address",
          "name": "to",
          "type": "address"
        },
        {
          "internalType": "uint256",
          "name": "tokenId",
          "type": "uint256"
        }
      ],
      "name": "safeTransferFrom",
      "outputs": [],
      "stateMutability": "nonpayable",
      "type": "function"
    },
    {
      "inputs": [
        {
          "internalType": "address",
          "name": "from",
          "type": "address"
        },
        {
          "internalType": "address",
          "name": "to",
          "type": "address"
        },
        {
          "internalType": "uint256",
          "name": "tokenId",
          "type": "uint256"
        },
        {
          "internalType": "bytes",
          "name": "_data",
          "type": "bytes"
        }
      ],
      "name": "safeTransferFrom",
      "outputs": [],
      "stateMutability": "nonpayable",
      "type": "function"
    },
    {
      "inputs": [
        {
          "internalType": "address",
          "name": "operator",
          "type": "address"
        },
        {
          "internalType": "bool",
          "name": "approved",
          "type": "bool"
        }
      ],
      "name": "setApprovalForAll",
      "outputs": [],
      "stateMutability": "nonpayable",
      "type": "function"
    },
    {
      "inputs": [
        {
          "internalType": "bytes4",
          "name": "interfaceId",
          "type": "bytes4"
        }
      ],
      "name": "supportsInterface",
      "outputs": [
        {
          "internalType": "bool",
          "name": "",
          "type": "bool"
        }
      ],
      "stateMutability": "view",
      "type": "function"
    },
    {
      "inputs": [],
      "name": "symbol",
      "outputs": [
        {
          "internalType": "string",
          "name": "",
          "type": "string"
        }
      ],
      "stateMutability": "view",
      "type": "function"
    },
    {
      "inputs": [],
      "name": "tokID",
      "outputs": [
        {
          "internalType": "uint256",
          "name": "",
          "type": "uint256"
        }
      ],
      "stateMutability": "view",
      "type": "function"
    },
    {
      "inputs": [
        {
          "internalType": "uint256",
          "name": "tokenId",
          "type": "uint256"
        }
      ],
      "name": "tokenURI",
      "outputs": [
        {
          "internalType": "string",
          "name": "",
          "type": "string"
        }
      ],
      "stateMutability": "view",
      "type": "function"
    },
    {
      "inputs": [
        {
          "internalType": "address",
          "name": "from",
          "type": "address"
        },
        {
          "internalType": "address",
          "name": "to",
          "type": "address"
        },
        {
          "internalType": "uint256",
          "name": "tokenId",
          "type": "uint256"
        }
      ],
      "name": "transferFrom",
      "outputs": [],
      "stateMutability": "nonpayable",
      "type": "function"
    },
    {
      "inputs": [
        {
          "internalType": "address",
          "name": "newOwner",
          "type": "address"
        }
      ],
      "name": "transferOwnership",
      "outputs": [],
      "stateMutability": "nonpayable",
      "type": "function"
    },
    {
      "inputs": [],
      "name": "transferToOwner",
      "outputs": [],
      "stateMutability": "nonpayable",
      "type": "function"
    }
  ],
  "bytecode": "0x60806040523480156200001157600080fd5b506040518060400160405280600681526020017f5469636b657400000000000000000000000000000000000000000000000000008152506040518060400160405280600281526020017f5443000000000000000000000000000000000000000000000000000000000000815250816000908051906020019062000096929190620001a6565b508060019080519060200190620000af929190620001a6565b505050620000d2620000c6620000d860201b60201c565b620000e060201b60201c565b620002bb565b600033905090565b6000600760009054906101000a900473ffffffffffffffffffffffffffffffffffffffff16905081600760006101000a81548173ffffffffffffffffffffffffffffffffffffffff021916908373ffffffffffffffffffffffffffffffffffffffff1602179055508173ffffffffffffffffffffffffffffffffffffffff168173ffffffffffffffffffffffffffffffffffffffff167f8be0079c531659141344cd1fd0a4f28419497f9722a3daafe3b4186f6b6457e060405160405180910390a35050565b828054620001b49062000256565b90600052602060002090601f016020900481019282620001d8576000855562000224565b82601f10620001f357805160ff191683800117855562000224565b8280016001018555821562000224579182015b828111156200022357825182559160200191906001019062000206565b5b50905062000233919062000237565b5090565b5b808211156200025257600081600090555060010162000238565b5090565b600060028204905060018216806200026f57607f821691505b602082108114156200028657620002856200028c565b5b50919050565b7f4e487b7100000000000000000000000000000000000000000000000000000000600052602260045260246000fd5b6130f880620002cb6000396000f3fe60806040526004361061011f5760003560e01c8063715018a6116100a0578063b88d4fde11610064578063b88d4fde146103c1578063c87b56dd146103ea578063e985e9c514610427578063f2fde38b14610464578063fb37e8831461048d5761011f565b8063715018a6146103005780637315cc93146103175780638da5cb5b1461034257806395d89b411461036d578063a22cb465146103985761011f565b80632d90ae94116100e75780632d90ae941461021b57806342842e0e146102325780634d9b3d5d1461025b5780636352211e1461028657806370a08231146102c35761011f565b806301ffc9a71461012457806306fdde0314610161578063081812fc1461018c578063095ea7b3146101c957806323b872dd146101f2575b600080fd5b34801561013057600080fd5b5061014b60048036038101906101469190612165565b6104bd565b6040516101589190612a10565b60405180910390f35b34801561016d57600080fd5b5061017661059f565b6040516101839190612a2b565b60405180910390f35b34801561019857600080fd5b506101b360048036038101906101ae91906121f8565b610631565b6040516101c091906129a9565b60405180910390f35b3480156101d557600080fd5b506101f060048036038101906101eb9190612129565b6106b6565b005b3480156101fe57600080fd5b5061021960048036038101906102149190612023565b6107ce565b005b34801561022757600080fd5b5061023061082e565b005b34801561023e57600080fd5b5061025960048036038101906102549190612023565b6108fa565b005b34801561026757600080fd5b5061027061091a565b60405161027d9190612c8d565b60405180910390f35b34801561029257600080fd5b506102ad60048036038101906102a891906121f8565b61099e565b6040516102ba91906129a9565b60405180910390f35b3480156102cf57600080fd5b506102ea60048036038101906102e59190611fbe565b610a50565b6040516102f79190612c8d565b60405180910390f35b34801561030c57600080fd5b50610315610b08565b005b34801561032357600080fd5b5061032c610b90565b6040516103399190612c8d565b60405180910390f35b34801561034e57600080fd5b50610357610ba1565b60405161036491906129a9565b60405180910390f35b34801561037957600080fd5b50610382610bcb565b60405161038f9190612a2b565b60405180910390f35b3480156103a457600080fd5b506103bf60048036038101906103ba91906120ed565b610c5d565b005b3480156103cd57600080fd5b506103e860048036038101906103e39190612072565b610dde565b005b3480156103f657600080fd5b50610411600480360381019061040c91906121f8565b610e40565b60405161041e9190612a2b565b60405180910390f35b34801561043357600080fd5b5061044e60048036038101906104499190611fe7565b610f92565b60405161045b9190612a10565b60405180910390f35b34801561047057600080fd5b5061048b60048036038101906104869190611fbe565b611026565b005b6104a760048036038101906104a291906121b7565b61111e565b6040516104b49190612c8d565b60405180910390f35b60007f80ac58cd000000000000000000000000000000000000000000000000000000007bffffffffffffffffffffffffffffffffffffffffffffffffffffffff1916827bffffffffffffffffffffffffffffffffffffffffffffffffffffffff1916148061058857507f5b5e139f000000000000000000000000000000000000000000000000000000007bffffffffffffffffffffffffffffffffffffffffffffffffffffffff1916827bffffffffffffffffffffffffffffffffffffffffffffffffffffffff1916145b8061059857506105978261116f565b5b9050919050565b6060600080546105ae90612eed565b80601f01602080910402602001604051908101604052809291908181526020018280546105da90612eed565b80156106275780601f106105fc57610100808354040283529160200191610627565b820191906000526020600020905b81548152906001019060200180831161060a57829003601f168201915b5050505050905090565b600061063c826111d9565b61067b576040517f08c379a000000000000000000000000000000000000000000000000000000000815260040161067290612bcd565b60405180910390fd5b6004600083815260200190815260200160002060009054906101000a900473ffffffffffffffffffffffffffffffffffffffff169050919050565b60006106c18261099e565b90508073ffffffffffffffffffffffffffffffffffffffff168373ffffffffffffffffffffffffffffffffffffffff161415610732576040517f08c379a000000000000000000000000000000000000000000000000000000000815260040161072990612c4d565b60405180910390fd5b8073ffffffffffffffffffffffffffffffffffffffff16610751611245565b73ffffffffffffffffffffffffffffffffffffffff161480610780575061077f8161077a611245565b610f92565b5b6107bf576040517f08c379a00000000000000000000000000000000000000000000000000000000081526004016107b690612b0d565b60405180910390fd5b6107c9838361124d565b505050565b6107df6107d9611245565b82611306565b61081e576040517f08c379a000000000000000000000000000000000000000000000000000000000815260040161081590612c6d565b60405180910390fd5b6108298383836113e4565b505050565b610836611245565b73ffffffffffffffffffffffffffffffffffffffff16610854610ba1565b73ffffffffffffffffffffffffffffffffffffffff16146108aa576040517f08c379a00000000000000000000000000000000000000000000000000000000081526004016108a190612bed565b60405180910390fd5b6108b2610ba1565b73ffffffffffffffffffffffffffffffffffffffff166108fc479081150290604051600060405180830381858888f193505050501580156108f7573d6000803e3d6000fd5b50565b61091583838360405180602001604052806000815250610dde565b505050565b6000610924611245565b73ffffffffffffffffffffffffffffffffffffffff16610942610ba1565b73ffffffffffffffffffffffffffffffffffffffff1614610998576040517f08c379a000000000000000000000000000000000000000000000000000000000815260040161098f90612bed565b60405180910390fd5b47905090565b6000806002600084815260200190815260200160002060009054906101000a900473ffffffffffffffffffffffffffffffffffffffff169050600073ffffffffffffffffffffffffffffffffffffffff168173ffffffffffffffffffffffffffffffffffffffff161415610a47576040517f08c379a0000000000000000000000000000000000000000000000000000000008152600401610a3e90612b4d565b60405180910390fd5b80915050919050565b60008073ffffffffffffffffffffffffffffffffffffffff168273ffffffffffffffffffffffffffffffffffffffff161415610ac1576040517f08c379a0000000000000000000000000000000000000000000000000000000008152600401610ab890612b2d565b60405180910390fd5b600360008373ffffffffffffffffffffffffffffffffffffffff1673ffffffffffffffffffffffffffffffffffffffff168152602001908152602001600020549050919050565b610b10611245565b73ffffffffffffffffffffffffffffffffffffffff16610b2e610ba1565b73ffffffffffffffffffffffffffffffffffffffff1614610b84576040517f08c379a0000000000000000000000000000000000000000000000000000000008152600401610b7b90612bed565b60405180910390fd5b610b8e6000611640565b565b6000610b9c6008611706565b905090565b6000600760009054906101000a900473ffffffffffffffffffffffffffffffffffffffff16905090565b606060018054610bda90612eed565b80601f0160208091040260200160405190810160405280929190818152602001828054610c0690612eed565b8015610c535780601f10610c2857610100808354040283529160200191610c53565b820191906000526020600020905b815481529060010190602001808311610c3657829003601f168201915b5050505050905090565b610c65611245565b73ffffffffffffffffffffffffffffffffffffffff168273ffffffffffffffffffffffffffffffffffffffff161415610cd3576040517f08c379a0000000000000000000000000000000000000000000000000000000008152600401610cca90612acd565b60405180910390fd5b8060056000610ce0611245565b73ffffffffffffffffffffffffffffffffffffffff1673ffffffffffffffffffffffffffffffffffffffff16815260200190815260200160002060008473ffffffffffffffffffffffffffffffffffffffff1673ffffffffffffffffffffffffffffffffffffffff16815260200190815260200160002060006101000a81548160ff0219169083151502179055508173ffffffffffffffffffffffffffffffffffffffff16610d8d611245565b73ffffffffffffffffffffffffffffffffffffffff167f17307eab39ab6107e8899845ad3d59bd9653f200f220920489ca2b5937696c3183604051610dd29190612a10565b60405180910390a35050565b610def610de9611245565b83611306565b610e2e576040517f08c379a0000000000000000000000000000000000000000000000000000000008152600401610e2590612c6d565b60405180910390fd5b610e3a84848484611714565b50505050565b6060610e4b826111d9565b610e8a576040517f08c379a0000000000000000000000000000000000000000000000000000000008152600401610e8190612bad565b60405180910390fd5b6000600660008481526020019081526020016000208054610eaa90612eed565b80601f0160208091040260200160405190810160405280929190818152602001828054610ed690612eed565b8015610f235780601f10610ef857610100808354040283529160200191610f23565b820191906000526020600020905b815481529060010190602001808311610f0657829003601f168201915b505050505090506000610f34611770565b9050600081511415610f4a578192505050610f8d565b600082511115610f7f578082604051602001610f67929190612985565b60405160208183030381529060405292505050610f8d565b610f8884611787565b925050505b919050565b6000600560008473ffffffffffffffffffffffffffffffffffffffff1673ffffffffffffffffffffffffffffffffffffffff16815260200190815260200160002060008373ffffffffffffffffffffffffffffffffffffffff1673ffffffffffffffffffffffffffffffffffffffff16815260200190815260200160002060009054906101000a900460ff16905092915050565b61102e611245565b73ffffffffffffffffffffffffffffffffffffffff1661104c610ba1565b73ffffffffffffffffffffffffffffffffffffffff16146110a2576040517f08c379a000000000000000000000000000000000000000000000000000000000815260040161109990612bed565b60405180910390fd5b600073ffffffffffffffffffffffffffffffffffffffff168173ffffffffffffffffffffffffffffffffffffffff161415611112576040517f08c379a000000000000000000000000000000000000000000000000000000000815260040161110990612a6d565b60405180910390fd5b61111b81611640565b50565b6000670de0b6b3a7640000341461113457600080fd5b61113e600861182e565b6000339050600061114f6008611706565b905061115b8282611844565b6111658185611a12565b8092505050919050565b60007f01ffc9a7000000000000000000000000000000000000000000000000000000007bffffffffffffffffffffffffffffffffffffffffffffffffffffffff1916827bffffffffffffffffffffffffffffffffffffffffffffffffffffffff1916149050919050565b60008073ffffffffffffffffffffffffffffffffffffffff166002600084815260200190815260200160002060009054906101000a900473ffffffffffffffffffffffffffffffffffffffff1673ffffffffffffffffffffffffffffffffffffffff1614159050919050565b600033905090565b816004600083815260200190815260200160002060006101000a81548173ffffffffffffffffffffffffffffffffffffffff021916908373ffffffffffffffffffffffffffffffffffffffff160217905550808273ffffffffffffffffffffffffffffffffffffffff166112c08361099e565b73ffffffffffffffffffffffffffffffffffffffff167f8c5be1e5ebec7d5bd14f71427d1e84f3dd0314c0f7b2291e5b200ac8c7c3b92560405160405180910390a45050565b6000611311826111d9565b611350576040517f08c379a000000000000000000000000000000000000000000000000000000000815260040161134790612aed565b60405180910390fd5b600061135b8361099e565b90508073ffffffffffffffffffffffffffffffffffffffff168473ffffffffffffffffffffffffffffffffffffffff1614806113ca57508373ffffffffffffffffffffffffffffffffffffffff166113b284610631565b73ffffffffffffffffffffffffffffffffffffffff16145b806113db57506113da8185610f92565b5b91505092915050565b8273ffffffffffffffffffffffffffffffffffffffff166114048261099e565b73ffffffffffffffffffffffffffffffffffffffff161461145a576040517f08c379a000000000000000000000000000000000000000000000000000000000815260040161145190612c0d565b60405180910390fd5b600073ffffffffffffffffffffffffffffffffffffffff168273ffffffffffffffffffffffffffffffffffffffff1614156114ca576040517f08c379a00000000000000000000000000000000000000000000000000000000081526004016114c190612aad565b60405180910390fd5b6114d5838383611a86565b6114e060008261124d565b6001600360008573ffffffffffffffffffffffffffffffffffffffff1673ffffffffffffffffffffffffffffffffffffffff16815260200190815260200160002060008282546115309190612e03565b925050819055506001600360008473ffffffffffffffffffffffffffffffffffffffff1673ffffffffffffffffffffffffffffffffffffffff16815260200190815260200160002060008282546115879190612d7c565b92505081905550816002600083815260200190815260200160002060006101000a81548173ffffffffffffffffffffffffffffffffffffffff021916908373ffffffffffffffffffffffffffffffffffffffff160217905550808273ffffffffffffffffffffffffffffffffffffffff168473ffffffffffffffffffffffffffffffffffffffff167fddf252ad1be2c89b69c2b068fc378daa952ba7f163c4a11628f55a4df523b3ef60405160405180910390a4505050565b6000600760009054906101000a900473ffffffffffffffffffffffffffffffffffffffff16905081600760006101000a81548173ffffffffffffffffffffffffffffffffffffffff021916908373ffffffffffffffffffffffffffffffffffffffff1602179055508173ffffffffffffffffffffffffffffffffffffffff168173ffffffffffffffffffffffffffffffffffffffff167f8be0079c531659141344cd1fd0a4f28419497f9722a3daafe3b4186f6b6457e060405160405180910390a35050565b600081600001549050919050565b61171f8484846113e4565b61172b84848484611a8b565b61176a576040517f08c379a000000000000000000000000000000000000000000000000000000000815260040161176190612a4d565b60405180910390fd5b50505050565b606060405180602001604052806000815250905090565b6060611792826111d9565b6117d1576040517f08c379a00000000000000000000000000000000000000000000000000000000081526004016117c890612c2d565b60405180910390fd5b60006117db611770565b905060008151116117fb5760405180602001604052806000815250611826565b8061180584611c22565b604051602001611816929190612985565b6040516020818303038152906040525b915050919050565b6001816000016000828254019250508190555050565b600073ffffffffffffffffffffffffffffffffffffffff168273ffffffffffffffffffffffffffffffffffffffff1614156118b4576040517f08c379a00000000000000000000000000000000000000000000000000000000081526004016118ab90612b8d565b60405180910390fd5b6118bd816111d9565b156118fd576040517f08c379a00000000000000000000000000000000000000000000000000000000081526004016118f490612a8d565b60405180910390fd5b61190960008383611a86565b6001600360008473ffffffffffffffffffffffffffffffffffffffff1673ffffffffffffffffffffffffffffffffffffffff16815260200190815260200160002060008282546119599190612d7c565b92505081905550816002600083815260200190815260200160002060006101000a81548173ffffffffffffffffffffffffffffffffffffffff021916908373ffffffffffffffffffffffffffffffffffffffff160217905550808273ffffffffffffffffffffffffffffffffffffffff16600073ffffffffffffffffffffffffffffffffffffffff167fddf252ad1be2c89b69c2b068fc378daa952ba7f163c4a11628f55a4df523b3ef60405160405180910390a45050565b611a1b826111d9565b611a5a576040517f08c379a0000000000000000000000000000000000000000000000000000000008152600401611a5190612b6d565b60405180910390fd5b80600660008481526020019081526020016000209080519060200190611a81929190611de2565b505050565b505050565b6000611aac8473ffffffffffffffffffffffffffffffffffffffff16611dcf565b15611c15578373ffffffffffffffffffffffffffffffffffffffff1663150b7a02611ad5611245565b8786866040518563ffffffff1660e01b8152600401611af794939291906129c4565b602060405180830381600087803b158015611b1157600080fd5b505af1925050508015611b4257506040513d601f19601f82011682018060405250810190611b3f919061218e565b60015b611bc5573d8060008114611b72576040519150601f19603f3d011682016040523d82523d6000602084013e611b77565b606091505b50600081511415611bbd576040517f08c379a0000000000000000000000000000000000000000000000000000000008152600401611bb490612a4d565b60405180910390fd5b805181602001fd5b63150b7a0260e01b7bffffffffffffffffffffffffffffffffffffffffffffffffffffffff1916817bffffffffffffffffffffffffffffffffffffffffffffffffffffffff191614915050611c1a565b600190505b949350505050565b60606000821415611c6a576040518060400160405280600181526020017f30000000000000000000000000000000000000000000000000000000000000008152509050611dca565b600082905060005b60008214611c9c578080611c8590612f1f565b915050600a82611c959190612dd2565b9150611c72565b60008167ffffffffffffffff811115611cde577f4e487b7100000000000000000000000000000000000000000000000000000000600052604160045260246000fd5b6040519080825280601f01601f191660200182016040528015611d105781602001600182028036833780820191505090505b5090505b60008514611dc357600182611d299190612e03565b9150600a85611d389190612f68565b6030611d449190612d7c565b60f81b818381518110611d80577f4e487b7100000000000000000000000000000000000000000000000000000000600052603260045260246000fd5b60200101907effffffffffffffffffffffffffffffffffffffffffffffffffffffffffffff1916908160001a905350600a85611dbc9190612dd2565b9450611d14565b8093505050505b919050565b600080823b905060008111915050919050565b828054611dee90612eed565b90600052602060002090601f016020900481019282611e105760008555611e57565b82601f10611e2957805160ff1916838001178555611e57565b82800160010185558215611e57579182015b82811115611e56578251825591602001919060010190611e3b565b5b509050611e649190611e68565b5090565b5b80821115611e81576000816000905550600101611e69565b5090565b6000611e98611e9384612cd9565b612ca8565b905082815260208101848484011115611eb057600080fd5b611ebb848285612eab565b509392505050565b6000611ed6611ed184612d09565b612ca8565b905082815260208101848484011115611eee57600080fd5b611ef9848285612eab565b509392505050565b600081359050611f1081613066565b92915050565b600081359050611f258161307d565b92915050565b600081359050611f3a81613094565b92915050565b600081519050611f4f81613094565b92915050565b600082601f830112611f6657600080fd5b8135611f76848260208601611e85565b91505092915050565b600082601f830112611f9057600080fd5b8135611fa0848260208601611ec3565b91505092915050565b600081359050611fb8816130ab565b92915050565b600060208284031215611fd057600080fd5b6000611fde84828501611f01565b91505092915050565b60008060408385031215611ffa57600080fd5b600061200885828601611f01565b925050602061201985828601611f01565b9150509250929050565b60008060006060848603121561203857600080fd5b600061204686828701611f01565b935050602061205786828701611f01565b925050604061206886828701611fa9565b9150509250925092565b6000806000806080858703121561208857600080fd5b600061209687828801611f01565b94505060206120a787828801611f01565b93505060406120b887828801611fa9565b925050606085013567ffffffffffffffff8111156120d557600080fd5b6120e187828801611f55565b91505092959194509250565b6000806040838503121561210057600080fd5b600061210e85828601611f01565b925050602061211f85828601611f16565b9150509250929050565b6000806040838503121561213c57600080fd5b600061214a85828601611f01565b925050602061215b85828601611fa9565b9150509250929050565b60006020828403121561217757600080fd5b600061218584828501611f2b565b91505092915050565b6000602082840312156121a057600080fd5b60006121ae84828501611f40565b91505092915050565b6000602082840312156121c957600080fd5b600082013567ffffffffffffffff8111156121e357600080fd5b6121ef84828501611f7f565b91505092915050565b60006020828403121561220a57600080fd5b600061221884828501611fa9565b91505092915050565b61222a81612e37565b82525050565b61223981612e49565b82525050565b600061224a82612d39565b6122548185612d4f565b9350612264818560208601612eba565b61226d81613055565b840191505092915050565b600061228382612d44565b61228d8185612d60565b935061229d818560208601612eba565b6122a681613055565b840191505092915050565b60006122bc82612d44565b6122c68185612d71565b93506122d6818560208601612eba565b80840191505092915050565b60006122ef603283612d60565b91507f4552433732313a207472616e7366657220746f206e6f6e20455243373231526560008301527f63656976657220696d706c656d656e74657200000000000000000000000000006020830152604082019050919050565b6000612355602683612d60565b91507f4f776e61626c653a206e6577206f776e657220697320746865207a65726f206160008301527f64647265737300000000000000000000000000000000000000000000000000006020830152604082019050919050565b60006123bb601c83612d60565b91507f4552433732313a20746f6b656e20616c7265616479206d696e746564000000006000830152602082019050919050565b60006123fb602483612d60565b91507f4552433732313a207472616e7366657220746f20746865207a65726f2061646460008301527f72657373000000000000000000000000000000000000000000000000000000006020830152604082019050919050565b6000612461601983612d60565b91507f4552433732313a20617070726f766520746f2063616c6c6572000000000000006000830152602082019050919050565b60006124a1602c83612d60565b91507f4552433732313a206f70657261746f7220717565727920666f72206e6f6e657860008301527f697374656e7420746f6b656e00000000000000000000000000000000000000006020830152604082019050919050565b6000612507603883612d60565b91507f4552433732313a20617070726f76652063616c6c6572206973206e6f74206f7760008301527f6e6572206e6f7220617070726f76656420666f7220616c6c00000000000000006020830152604082019050919050565b600061256d602a83612d60565b91507f4552433732313a2062616c616e636520717565727920666f7220746865207a6560008301527f726f2061646472657373000000000000000000000000000000000000000000006020830152604082019050919050565b60006125d3602983612d60565b91507f4552433732313a206f776e657220717565727920666f72206e6f6e657869737460008301527f656e7420746f6b656e00000000000000000000000000000000000000000000006020830152604082019050919050565b6000612639602e83612d60565b91507f45524337323155524953746f726167653a2055524920736574206f66206e6f6e60008301527f6578697374656e7420746f6b656e0000000000000000000000000000000000006020830152604082019050919050565b600061269f602083612d60565b91507f4552433732313a206d696e7420746f20746865207a65726f20616464726573736000830152602082019050919050565b60006126df603183612d60565b91507f45524337323155524953746f726167653a2055524920717565727920666f722060008301527f6e6f6e6578697374656e7420746f6b656e0000000000000000000000000000006020830152604082019050919050565b6000612745602c83612d60565b91507f4552433732313a20617070726f76656420717565727920666f72206e6f6e657860008301527f697374656e7420746f6b656e00000000000000000000000000000000000000006020830152604082019050919050565b60006127ab602083612d60565b91507f4f776e61626c653a2063616c6c6572206973206e6f7420746865206f776e65726000830152602082019050919050565b60006127eb602983612d60565b91507f4552433732313a207472616e73666572206f6620746f6b656e2074686174206960008301527f73206e6f74206f776e00000000000000000000000000000000000000000000006020830152604082019050919050565b6000612851602f83612d60565b91507f4552433732314d657461646174613a2055524920717565727920666f72206e6f60008301527f6e6578697374656e7420746f6b656e00000000000000000000000000000000006020830152604082019050919050565b60006128b7602183612d60565b91507f4552433732313a20617070726f76616c20746f2063757272656e74206f776e6560008301527f72000000000000000000000000000000000000000000000000000000000000006020830152604082019050919050565b600061291d603183612d60565b91507f4552433732313a207472616e736665722063616c6c6572206973206e6f74206f60008301527f776e6572206e6f7220617070726f7665640000000000000000000000000000006020830152604082019050919050565b61297f81612ea1565b82525050565b600061299182856122b1565b915061299d82846122b1565b91508190509392505050565b60006020820190506129be6000830184612221565b92915050565b60006080820190506129d96000830187612221565b6129e66020830186612221565b6129f36040830185612976565b8181036060830152612a05818461223f565b905095945050505050565b6000602082019050612a256000830184612230565b92915050565b60006020820190508181036000830152612a458184612278565b905092915050565b60006020820190508181036000830152612a66816122e2565b9050919050565b60006020820190508181036000830152612a8681612348565b9050919050565b60006020820190508181036000830152612aa6816123ae565b9050919050565b60006020820190508181036000830152612ac6816123ee565b9050919050565b60006020820190508181036000830152612ae681612454565b9050919050565b60006020820190508181036000830152612b0681612494565b9050919050565b60006020820190508181036000830152612b26816124fa565b9050919050565b60006020820190508181036000830152612b4681612560565b9050919050565b60006020820190508181036000830152612b66816125c6565b9050919050565b60006020820190508181036000830152612b868161262c565b9050919050565b60006020820190508181036000830152612ba681612692565b9050919050565b60006020820190508181036000830152612bc6816126d2565b9050919050565b60006020820190508181036000830152612be681612738565b9050919050565b60006020820190508181036000830152612c068161279e565b9050919050565b60006020820190508181036000830152612c26816127de565b9050919050565b60006020820190508181036000830152612c4681612844565b9050919050565b60006020820190508181036000830152612c66816128aa565b9050919050565b60006020820190508181036000830152612c8681612910565b9050919050565b6000602082019050612ca26000830184612976565b92915050565b6000604051905081810181811067ffffffffffffffff82111715612ccf57612cce613026565b5b8060405250919050565b600067ffffffffffffffff821115612cf457612cf3613026565b5b601f19601f8301169050602081019050919050565b600067ffffffffffffffff821115612d2457612d23613026565b5b601f19601f8301169050602081019050919050565b600081519050919050565b600081519050919050565b600082825260208201905092915050565b600082825260208201905092915050565b600081905092915050565b6000612d8782612ea1565b9150612d9283612ea1565b9250827fffffffffffffffffffffffffffffffffffffffffffffffffffffffffffffffff03821115612dc757612dc6612f99565b5b828201905092915050565b6000612ddd82612ea1565b9150612de883612ea1565b925082612df857612df7612fc8565b5b828204905092915050565b6000612e0e82612ea1565b9150612e1983612ea1565b925082821015612e2c57612e2b612f99565b5b828203905092915050565b6000612e4282612e81565b9050919050565b60008115159050919050565b60007fffffffff0000000000000000000000000000000000000000000000000000000082169050919050565b600073ffffffffffffffffffffffffffffffffffffffff82169050919050565b6000819050919050565b82818337600083830152505050565b60005b83811015612ed8578082015181840152602081019050612ebd565b83811115612ee7576000848401525b50505050565b60006002820490506001821680612f0557607f821691505b60208210811415612f1957612f18612ff7565b5b50919050565b6000612f2a82612ea1565b91507fffffffffffffffffffffffffffffffffffffffffffffffffffffffffffffffff821415612f5d57612f5c612f99565b5b600182019050919050565b6000612f7382612ea1565b9150612f7e83612ea1565b925082612f8e57612f8d612fc8565b5b828206905092915050565b7f4e487b7100000000000000000000000000000000000000000000000000000000600052601160045260246000fd5b7f4e487b7100000000000000000000000000000000000000000000000000000000600052601260045260246000fd5b7f4e487b7100000000000000000000000000000000000000000000000000000000600052602260045260246000fd5b7f4e487b7100000000000000000000000000000000000000000000000000000000600052604160045260246000fd5b6000601f19601f8301169050919050565b61306f81612e37565b811461307a57600080fd5b50565b61308681612e49565b811461309157600080fd5b50565b61309d81612e55565b81146130a857600080fd5b50565b6130b481612ea1565b81146130bf57600080fd5b5056fea264697066735822122018983f24203f56ca7620f7b85124e978b959767d25261cd14eb603a800cc847264736f6c63430008000033",
  "linkReferences": {},
  "deployedLinkReferences": {}
}